:1000000000800020BD0100002D470000F9460000DF
:10001000F9460000F9460000F9460000F9460000E4
:10002000F9460000F9460000F94600002D4700009F
:100030002D470000F94600002D470000E94600006A
:100040002D4700002D4700002D4700002D470000E0
:100050002D4700002D4700002D4700002D470000D0
:100060002D4700002D4700002D4700002D470000C0
:100070002D4700002D4700002D4700002D470000B0
:100080002D4700002D4700002D4700002D470000A0
:100090002D4700002D4700002D4700002D47000090
:1000A0002D4700002D4700002D4700002D47000080
:1000B0002D4700002D4700002D4700002D47000070
:1000C0002D4700002D4700002D4700002D47000060
:1000D0002D4700002D4700002D4700002D47000050
:1000E0002D4700002D4700002D4700002D47000040
:1000F0002D470000154D00002D470000D153000092
:100100002D470000D15800002D4700002D4700006A
:100110002D4700002D4700002D4700002D4700000F
:100120002D4700002D4700002D4700002D470000FF
:100130002D4700002D4700002D4700002D470000EF
:100140002D4700002D4700002D4700002D470000DF
:100150002D4700002D4700002D4700002D470000CF
:100160002D470000452000002D4700002D470000CE
:100170002D4700002D4700002D4700002D470000AF
:100180002D4700002D4700002D4700002D4700009F
:100190002D4700002D4700002D4700002D4700008F
:1001A0002D4700002D4700002D4700002D4700007F
:1001B0002D4700002D4700002D470000564B4CF204
:1001C000205210B51A804DF628121A8000BF00BFC9
:1001D00004F0B0FA514B4FF010621A60504A9A6026
:1001E000504ADA60A3F53043203B1A6812F480725B
:1001F00004D14D490A604FF4A8521A604B4B1A784B
:10020000110703D51A7842F008021A70484B2A22C7
:100210001A700023474A48499818884204D247492F
:10022000595899500433F5E7454A464B9A424FF0E6
:10023000000302D242F8043BF7E74349434A5958C6
:1002400099500433B3F5DE7FF7D1414B802103F899
:10025000011B40498B42F9D13F4B1A603F4B8A2228
:100260001A70A3F5805324225A70A0221A709A792A
:100270009207FCD59A79D406FCD4394B9A7902F0CE
:100280000C02082AF9D103221A7140225A719A7974
:100290009006FCD5324B9A795106FBD5314A32494A
:1002A00011600221516020221A702D4B9B7903F0BE
:1002B0000C030C2BF9D12D4B2D4A1A602D4B2E4AD5
:1002C0001A6000225A60072243F8042C2B4AC3F814
:1002D0000C2D62B601F09CFD134B1B68DA0705D5A7
:1002E000274801F00FFC274B274A1A60274B1B7841
:1002F0005B0609D5234C244A2368934204D1204845
:1003000001F000FC0023236005F0B8FB04F018FAAC
:1003100001F0A2F9FEE700BF0E2005403080044046
:10032000823F04000100002B14D0034002D007409C
:1003300000E007406087FF1FBC88FF1F6C8F000034
:10034000C088FF1F4C8DFF1F000000000082FF1FB0
:1003500000E400E05FE400E008ED00E0005006404B
:100360000040064044800440000003010480044033
:10037000C010050014E000E0FF760100000020201E
:10038000596919581CE00340A5C3945A00F007406E
:10039000FFFFFFFFFFFFFFFFFFFFFFFFFFFFFFFF6D
:1003A000FFFFFFFFFFFFFFFFFFFFFFFFFFFFFFFF5D
:1003B000FFFFFFFFFFFFFFFFFFFFFFFFFFFFFFFF4D
:1003C000FFFFFFFFFFFFFFFFFFFFFFFFFFFFFFFF3D
:1003D000FFFFFFFFFFFFFFFFFFFFFFFFFFFFFFFF2D
:1003E000FFFFFFFFFFFFFFFFFFFFFFFFFFFFFFFF1D
:1003F000FFFFFFFFFFFFFFFFFFFFFFFFFFFFFFFF0D
:10040000FFFFFFFFFFFFFFFFFFFFFFFFDEF9FFFF23
:1004100010B5054C237833B9044B13B10448AFF33E
:1004200000800123237010BDC088FF1F0000000062
:100430006C8F000008B5064B1BB106480649AFF3A8
:1004400000800648036813B1054B03B1984708BD07
:10045000000000006C8F0000C488FF1FBC88FF1FD5
:1004600000000000054B06491B6809781A7822EA4B
:1004700001021A70836C013383647047448BFF1F41
:10048000428BFF1F002380F82930704780F8281026
:100490007047FFFF10B5094C04F1300001F0CCF9B2
:1004A00004F1200001F0C8F904F1100001F0C4F9D2
:1004B0002046BDE8104001F0BFB900BF5089FF1FC2
:1004C00010B5094C04F1300001F0B6F904F1200038
:1004D00001F0B2F904F1100001F0AEF92046BDE8D8
:1004E000104001F0A9B900BFF088FF1F836C013BE9
:1004F000002B836408DC054B054A1B6812781978C9
:100500000A431A7000238364704700BF448BFF1FA7
:10051000428BFF1F054AD36A13F0F00F03F47043B8
:1005200018BF926BB3F5405FF4D8704700C002402B
:1005300010B50446406D02F0B8FA636DA36110BDBA
:1005400010B50446806D02F0B0FAA36D636110BD72
:1005500010B5184B1A7802B372B61B78D90707D5B5
:10056000154A1649146809682140154C216011602C
:100570009A0707D5134A1149146849682140104C5D
:10058000616011605B0707D50F4B0C4A19689268D0
:100590000A400B498A601A6062B60C4BDA688242E4
:1005A00007D00B4A1A60D8600A4A40F080401861B0
:1005B0001A6010BD608BFF1F80E100E0488BFF1FB9
:1005C000548BFF1F84E100E088E100E000C002409E
:1005D00001401F0000001F800A4B1B788BB1D90718
:1005E00003D5094A1168094A11609A0703D5064ADA
:1005F0005168074A11605B0703D5034B9A68054BA6
:100600001A607047608BFF1F548BFF1F00E100E0F2
:1006100004E100E008E100E0F8B50446AA4B0078E8
:1006200053F83020E26001256278257653F83220B5
:100630002261A278657653F832206261E278A5766D
:1006400053F83220A14B1A60A14B29461D7001F0CE
:1006500089FA6078294601F085FAA078294601F0E8
:1006600081FA2079294601F07DFAE078294601F0E7
:1006700079FAE078294601F055FA94F82E300B2BE0
:1006800002D0072B40F01F8194F82D2002F0FB02CE
:10069000082A40F0188194F82F200D3A012A00F220
:1006A00012818C480B2B017802D101F0FE0204E08C
:1006B000072B0CBF41F001020A46874D2B68DF046F
:1006C0000DD58A420BD012F0010F844B844E4FF4AB
:1006D000A27140F0E98019604FF41073336094F810
:1006E0002D3002700C2B02D102F0FD0304E0082B28
:1006F0000CBF42F0020313462968CE040DD5934285
:100700000BD013F0020F4FF4A2727649764E40F0F0
:10071000D0800A604FF40072326094F82F2003708A
:100720000D2A02D103F0FB0205E00E2A06BF43F0BA
:100730000402D2B21A462968C9040DD59A420BD0D8
:1007400012F0040F4FF4A2736849694D40F0B6806F
:100750000B604FF410732B60027003F03FFC94F8B1
:10076000290094F82A1003F091FC80B394F8290032
:1007700003F0C0FC054684F82B0094F82A0003F02F
:10078000B9FC284384F82C00012194F82800594D25
:1007900001F0E8F9012194F8280001F0C3F90520DF
:1007A00001F020FB002194F8280001F0BBF914208F
:1007B00001F018FB012194F8280001F0B3F996200C
:1007C00001F010FB4FF03840FFF7C2FE04E084F860
:1007D0002B0084F82C00F8BD297894F82C20464B87
:1007E0004F1EFFB2C1B1697841EA024242F00042B5
:1007F0005A63FFF78FFEAE1CF519AE42ECD016F827
:10080000013B94F82B2043EA02423B4B42F000426A
:100810005A63FFF77FFEF0E7120442F0006242F0F5
:10082000110218685A63344AD16A11F0805F134686
:1008300004D111F0F00F18BF936BF4E74FF0805222
:10084000DA621860DA6A2C4D12F0F00F01D0AA6B50
:10085000F8E7FFF7C1FE782001F0C4FA4FF0384006
:10086000FFF776FE94F82C3028681B0443F00063F1
:1008700043F029036B63204AD16A11F0805F13466D
:1008800004D111F0F00F18BF936BF4E74FF08052D2
:10089000DA621860DA6A12F0F00F02D0164A926B30
:1008A000F8E7FFF799FEF8BD31604FF40071196069
:1008B00015E732604FF400720A602EE72B604FF4A8
:1008C00000730B6048E7F8BD588C0000448BFF1F95
:1008D000428BFF1F488AFF1F3C80044008C0044031
:1008E00018B004400CC004401CB0044004C00440D4
:1008F00014B004406863000000C0024038B50446EC
:100900004FF038400D46FFF723FE94F82C20104B93
:1009100045EA024545F0006518685D630C4AD16AF6
:1009200011F0805F134604D111F0F00F18BF936BE4
:10093000F4E74FF08052DA621860DA6A12F0F00FD2
:1009400002D0034A926BF8E7FFF746FE38BD00BFBE
:1009500000C0024038B504464FF038400D46FFF75E
:10096000F7FD94F82B20104B45EA024545F0006551
:1009700018685D630C4AD16A11F0805F134604D198
:1009800011F0F00F18BF936BF4E74FF08052DA626A
:100990001860DA6A12F0F00F02D0034A926BF8E79F
:1009A000FFF71AFE38BD00BF00C0024038B500F1A5
:1009B0005C0415462046FFF7CDFF20462946BDE8DA
:1009C0003840FFF7C7BFFFFF70B500F15C04684E09
:1009D000684D2046FFF720FE336829781A7822EA0E
:1009E00001021A702046CB21FFF788FF20463921EB
:1009F000FFF7B0FF20462C21FFF7ACFF2046002177
:100A0000FFF7A8FF20463421FFF7A4FF204602216C
:100A1000FFF7A0FF2046CF21FFF770FF20460021FF
:100A2000FFF798FF2046C121FFF794FF20463021B1
:100A3000FFF790FF2046E821FFF760FF2046852161
:100A4000FFF788FF20460021FFF784FF204678212A
:100A5000FFF780FF2046EA21FFF750FF20460021E4
:100A6000FFF778FF20460021FFF774FF2046ED21B5
:100A7000FFF744FF20466421FFF76CFF2046032167
:100A8000FFF768FF20461221FFF764FF204681210F
:100A9000FFF760FF2046F721FFF730FF20462021B7
:100AA000FFF758FF2046C021FFF728FF20462321EB
:100AB000FFF750FF2046C121FFF720FF20461021FD
:100AC000FFF748FF2046C521FFF718FF20463E21CB
:100AD000FFF740FF20462821FFF73CFF2046C721B3
:100AE000FFF70CFF20468621FFF734FF2046362112
:100AF000FFF704FF20464821FFF72CFF20463A214C
:100B0000FFF7FCFE20465521FFF724FF2046B121C8
:100B1000FFF7F4FE20460021FFF71CFF20461821B6
:100B2000FFF718FF2046B621FFF7E8FE2046082110
:100B3000FFF710FF20468221FFF70CFF20462721F8
:100B4000FFF708FF11212046FFF7D8FE782001F0BB
:100B500049F920462921FFF7D1FE2C212046FFF735
:100B6000CDFE33682A7819780A431A7070BD00BF29
:100B7000448BFF1F428BFF1FF8B5164A164B1168B6
:100B80001D780C7824EA05040C70417B17461E463C
:100B9000B0F92C20B0F90630012988BFC2EB03025E
:100BA00092FBF3F500F15C0403FB15252046372189
:100BB000FFF7A4FE2046C5F30721FFF7CBFEE9B2FD
:100BC0002046FFF7C7FE3B68327819780A431A704F
:100BD000F8BD00BF448BFF1F428BFF1F2DE9F74F6D
:100BE000744D754C0E46296894F800E00F7827EA9A
:100BF0000E070F700168BDF9347000970F68114639
:100C00001A46BDF930308046B847AA460746002844
:100C100000F0CD801423F5B290FBF3F9C6F307265C
:100C20004FF0000B0FFA8BF24A450BF1010B80F2EB
:100C3000A38008F15C0420463146FFF78BFE204676
:100C40002946FFF787FE20463146FFF783FE204600
:100C50002946FFF77FFE20463146FFF77BFE204600
:100C60002946FFF777FE20463146FFF773FE204600
:100C70002946FFF76FFE20463146FFF76BFE204600
:100C80002946FFF767FE20463146FFF763FE204600
:100C90002946FFF75FFE20463146FFF75BFE204600
:100CA0002946FFF757FE20463146FFF753FE204600
:100CB0002946FFF74FFE20463146FFF74BFE204600
:100CC0002946FFF747FE20463146FFF743FE204600
:100CD0002946FFF73FFE20463146FFF73BFE204600
:100CE0002946FFF737FE20463146FFF733FE204600
:100CF0002946FFF72FFE20463146FFF72BFE204600
:100D00002946FFF727FE20463146FFF723FE2046FF
:100D10002946FFF71FFE20463146FFF71BFE2046FF
:100D20002946FFF717FE20463146FFF713FE2046FF
:100D30002946FFF70FFE20463146FFF70BFE2046FF
:100D40002946FFF707FE20463146FFF703FE2046FF
:100D50002946FFF7FFFD20463146FFF7FBFD204601
:100D60002946FFF7F7FD20463146FFF7F3FD204601
:100D70002946FFF7EFFD55E7142397FBF3F203FB3A
:100D800012770024BC420BDA08F15C0B584631465E
:100D9000FFF7E0FD58462946FFF7DCFD0134F1E797
:100DA000DAF800300448197802780A431A7003B060
:100DB000BDE8F08F448BFF1F428BFF1F37B5ADF8A6
:100DC0000010ADF804306946BDF91830ADF80220C6
:100DD00004461546ADF8063002F093FE002841D0D7
:100DE0005C3420462A21FFF789FD20469DF801103A
:100DF000FFF7B0FD20469DF80010FFF7ABFD204641
:100E00009DF80510FFF7A6FD20469DF80410FFF79A
:100E1000A1FD20462B21FFF771FD2046C5F30721D8
:100E2000FFF798FD20469DF80210FFF793FD20463E
:100E30009DF80710FFF78EFD20469DF80610FFF77E
:100E400089FD20462C21FFF759FDBDF90400BDF9AD
:100E50000030BDF90220C31ABDF90600801A013026
:100E600003FB000003B030BD2DE9F04F9DB0002220
:100E7000059005999F4C08A8022300F0F6FD0599FE
:100E800002228B680CA800F0F0FD9B499B48D4F827
:100E9000088001F0A1FE00210A460B469748FFF7A3
:100EA00047FB964821782279237AFFF749FB94483B
:100EB000944900F0ABFD0746002840F08D8010A853
:100EC0008F493A46022300F0D0FD059D8C49AB685E
:100ED00014A8022200F0C9FD26686568A46846458A
:100EE000A8BFB046A845B8BFA846CDF81C80079B50
:100EF0009F4266DA002EC4BF0F3E26EAE676002D3A
:100F0000C4BF0F3D25EAE575002CC4BF0F3C24EAA1
:100F1000E4747A48DFF8F0B1DFF8F091DFF8F0A17F
:100F2000F1B2EAB2E3B2FFF70BFBDFF8E8C1DBF89E
:100F30000020DCF8003013449BB20693DAF800205E
:100F4000D9F80030CDF80CC01A4492B210A918A8F4
:100F5000049200F0E9FC069B049A68484FF00008F0
:100F600019B212B218ABCDF8008002F0A9FD18A892
:100F700000F062FCDDF80CC0DBF80030DCF800208B
:100F800002EB030BDAF80020D9F800300BF1480B24
:100F900002EB030914A91FFA8BFB1FFA89F918A8A1
:100FA00000F0C2FC5548CDF800800FFA8BF10FFA23
:100FB00089F218AB02F084FD18A800F03DFC0F3751
:100FC00095E750494E4800F0C2FC14A800F034FCEC
:100FD00010A800F031FC02E0002425462646454BCF
:100FE0009A6819685B689142A8BF0A469A42B8BFDE
:100FF0001A4607920027079B9F426DDA3D4B1A68FD
:10100000964203DA0C369642A8BF16465A689542B5
:1010100003DA0C359542A8BF15469B689C4203DA5B
:101020000C349C42A8BF1C463448DFF8DCB0DFF823
:10103000DC90DFF8DCA0F1B2EAB2E3B2FFF780FAAD
:10104000DFF8D0C0DBF80020DCF8003013449BB29E
:101050000693DAF80020D9F80030CDF80CC01A4415
:1010600092B208A918A8049200F05EFC069B049AAC
:1010700022484FF0000819B212B218ABCDF8008028
:1010800002F01EFD18A800F0D7FBDDF80CC0DBF85D
:101090000030DCF8002002EB030BDAF80020D9F86E
:1010A00000300BF1480B02EB03090CA91FFA8BFB74
:1010B0001FFA89F918A800F037FC1048CDF8008015
:1010C0000FFA8BF10FFA89F218AB02F0F9FC18A8AD
:1010D00000F0B2FB0C378EE70599094800F01CFCC4
:1010E0000CA800F0A9FB08A800F0A6FB1DB0BDE805
:1010F000F08F00BF6487FF1FF85C0000A889FF1F06
:101100009089FF1F238C00008487FF1F8C87FF1F9F
:101110008887FF1F8087FF1F2DE9F047244C254952
:10112000DFF8A480244F254E86B0204601F054FD00
:10113000002120460A460B46FFF7FAF9EB2120462C
:101140000A460B46FFF7FCF9D8F800203B681C491B
:1011500013441FFA83FA336812331FFA83F9002508
:1011600002A800F0A9FB0FFA8AF10FFA89F202AB8C
:101170002046009502F0A4FC02A800F05DFBD8F820
:1011800000203B6836680F49D7182A36BFB2B6B27E
:1011900002A800F091FB204639B232B202AB0095B2
:1011A00002F08EFC02A800F047FB06B0BDE8F08715
:1011B000A889FF1FD06300008087FF1F448AFF1F9C
:1011C000128C0000168C00007487FF1FF0B53D4B99
:1011D0001D683D4B002187B01F680A460B46044638
:1011E0003A48FFF7A5F900210A460B463748FFF7B2
:1011F000A7F91523009335487D21BD226D2301F009
:101200005FFFFF210B460A463048FFF799F9304946
:101210002E4801F0E1FC214602A800F085FB02A95E
:1012200000222A4801F006FD064602A800F004FB51
:10123000542E05F1060507F112072ADD214602A802
:1012400000F072FB02A90022204801F0F3FC0646E0
:1012500002A800F0F1FA552E0EDDA36802A821467F
:101260000022013B00F001FC204602A900F067FBD0
:1012700002A800F0E1FAE1E7214602A800F054FBE1
:10128000124802A9002201F0D5FC064602A800F08F
:10129000D3FA2146C6F1550602A800F045FB3544B5
:1012A000002329B23AB20093084802AB02F008FCCE
:1012B00002A800F0C1FA2146064800F02DFB07B055
:1012C000F0BD00BFEC88FF1F448AFF1FA889FF1FE5
:1012D000D0630000DC88FF1FF0B5494B1D68494B07
:1012E000002187B01F680A460B4604464648FFF7B0
:1012F0001FF900210A460B464348FFF721F9152341
:10130000009341488721D4226D2301F0D9FEFF21AB
:101310000B460A463C48FFF713F93C493A4801F0AE
:101320005BFC20463A4900F071FB04352A3703463E
:1013300020B12046374900F00AFB0FE0364A116819
:10134000052903DC3048FF21552205E0092905DC89
:101350002D48FF2199223323FFF7F2F8214602A8F6
:1013600000F0E2FA02A90022274801F063FC0646D9
:1013700002A800F061FA542E2ADD214602A800F0EE
:10138000D3FA02A90022204801F054FC064602A824
:1013900000F052FA552E0EDDA36802A82146002265
:1013A000013B00F062FB204602A900F0C8FA02A847
:1013B00000F042FAE1E7214602A800F0B5FA12482F
:1013C00002A9002201F036FC064602A800F034FA19
:1013D0002146C6F1550602A800F0A6FA35440023BE
:1013E00029B23AB20093084802AB02F069FB02A8A6
:1013F00000F022FA2146094800F08EFA07B0F0BD4D
:10140000EC88FF1F448AFF1FA889FF1FD0630000DC
:101410001C8C00001F8C00009087FF1F3089FF1F6D
:10142000054B06481A68064B0132B3F90010054B0C
:1014300012B202F0BFBB00BF7887FF1FA889FF1F51
:101440007087FF1F30890000F0B53A4C87B0052047
:10145000002100F0C5FB00252046032184F8295017
:1014600001F032FB0B2009230A2102220D2684F809
:101470005D0084F85E3084F88A0084F88630204667
:101480000C23012784F85F1084F8602084F885100D
:1014900084F8842084F8893084F85C6084F877705C
:1014A00084F88B60FFF790FAFF210A460B4620462E
:1014B000FFF746F82A462B4629462046FFF738F81C
:1014C000204601F01BFEFFF7ABFFFFF725FE1A4990
:1014D00002A800F029FA02A8FFF778FE02A800F09F
:1014E000ABF9164902A800F01FFA02A8FFF7BCFCEE
:1014F00002A800F0A1F9124B1B689D4208DA2946A8
:10150000052000F06DFB022000F06CFC0135F2E7D5
:101510000C4B1A6800920C4A009911601A680192EB
:1015200001990A4A1B6802931160094B029A1A60DA
:1015300007B0F0BDA889FF1F5089FF1FF088FF1F6B
:101540009C87FF1F4C8AFF1F3C8AFF1FA489FF1F37
:10155000A089FF1FF0B5364D8BB02B680093354B3B
:10156000009A1A60344B1968521AB2F57A7F1C46F9
:1015700023D3324B1A68013A002A1A6002DA304A41
:1015800012681A6019680A2202A800F0F0F902A88D
:101590002C4900F02DFA02A906A800F0C5F906A80A
:1015A000FFF79AFE06A800F047F92B680193019A0D
:1015B000226002A800F040F937E02B680293224B2A
:1015C00002981A68801A1E4A11684FF47A746143AF
:1015D000884217461E4628D91C4C21680131032930
:1015E000C6BF002323602160194B216806A803EBC6
:1015F000011100F099F906A8FFF736FC06A800F0E3
:101600001BF90E4B3A681A602168124B06A803EBCF
:10161000011100F089F906A8FFF7D8FD06A800F02F
:101620000BF92B680693069A32600BB0F0BD00BF31
:101630004C8AFF1FA089FF1F3C8AFF1F9087FF1F56
:101640009887FF1F1D8C0000A489FF1FA087FF1F24
:10165000F088FF1F5089FF1F08B5FFF7F5FEFFF761
:1016600079FF01F09BF9FAE7F8B5564C4FF4A071F9
:101670002046F02201F054FA0A2384F8613009234D
:1016800084F86230022384F86330012704260B2398
:1016900084F8643084F82A7084F85C6084F8777089
:1016A00084F88B60484F494E494A22600D23062238
:1016B00084F8653003250C230720052184F8663063
:1016C00084F8893084F85D5084F85F0084F86010F5
:1016D00084F85E2084F88A5084F885003D4D84F8B3
:1016E000841084F8862038463B4C314600F0E4F8FC
:1016F00038463A4F2946224604F0AAF93846314680
:1017000000F0DAF83846364F2946224604F0A0F9B0
:101710003846314600F0D0F83846324F2946224646
:1017200004F096F93146384600F0C6F829462E4DA9
:101730002246384604F08CF928462C4900F0BCF8C3
:1017400005F110002A4900F0B7F805F120002949F9
:1017500000F0B2F805F130002749284D00F0ACF850
:1017600022462749002004F073F92649284600F054
:10177000A3F8254905F1100000F09EF8234905F172
:10178000200000F099F8224905F1300000F094F8AB
:1017900020492246002004F05BF91F4B1F4A1B68BA
:1017A00013601F4A11681F4A1944603911601E4AAC
:1017B000126813441D4A453B13601D4B1A681D4BAC
:1017C0001A60F8BDA889FF1F9089FF1F238C0000B5
:1017D00030630000391800006087FF1FDC88FF1F9E
:1017E0004089FF1F3089FF1FF088FF1F298C0000F0
:1017F000308C0000378C00003E8C00005089FF1FA9
:10180000C1040000458C0000498C00004D8C000094
:10181000518C0000950400009487FF1F388AFF1F39
:101820008087FF1FEC88FF1F8C87FF1F448AFF1FE4
:101830007C87FF1F408AFF1F10B50446006804F034
:101840004BF9204610BD38B504460D4600680131FD
:1018500004F0E2F910B184E82100012038BD4368AA
:101860008B4210B5044606D2FFF7EDFF20B1A36806
:101870000BB922681370012010BDF8B504460F465D
:10188000154622B9036803B11A7000230BE0114614
:10189000FFF7E5FF064640B9206810B104F01CF9D7
:1018A000266000236360A36004E0A56020683946D9
:1018B00004F0E3F92046F8BD38B500230446036080
:1018C0004360836003730D4639B1084604F0DDF9C7
:1018D000294602462046FFF7D0FF204638BD38B5DE
:1018E000054600680C4660B16A688B689A4206D368
:1018F000096804F0C2F9A368AB6000230AE004F0B1
:10190000EBF823682B6063686B60A368AB6000230F
:1019100023606360A36038BD81420B4603D0096831
:101920009A68FFF7AABF704710B50023044603600A
:10193000436083600373FFF7EFFF204610BD8842CA
:1019400010B5044601D0FFF7CAFF204610BD38B5D8
:1019500005460C4641B1084604F097F92146024677
:101960002846FFF78AFF00E0A960284638BD10B579
:10197000002386B004460360436083600373084617
:1019800001A900F0AFF8204601A9FFF7E0FF2046CB
:1019900006B010BD2DE9F8430368866899420446F5
:1019A0000D46904606D39A19914203D2C3EB010922
:1019B000012700E00027B8F1000F16D0464420466A
:1019C0003146FFF74CFF80B1A068216847B1084459
:1019D0004246494402F0E0FB236800229A5503E0A6
:1019E0000844294604F049F9A6602046BDE8F8837A
:1019F00038B505460C4639B1084604F046F921468B
:101A000002462846FFF7C6FF284638BD826808B55B
:101A10000B4612B919B9012008BD11B9036818782D
:101A200002E0006804F01FF9D0F1010038BF002087
:101A300008BD8368994203D2006810B1405C7047CA
:101A400000207047FFF7F5BF83689A4210B506D2B1
:101A50000468A01804F0FAF808B1001B10BD4FF09C
:101A6000FF3010BD0022FFF7EFBF9A42F8B50446E1
:101A70000D4602D911461A460B460020A060AE68FA
:101A80002060B242606020730CD8B34238BF1E465B
:101A90002B689F5D9855296820461144FFF757FF32
:101AA0002B689F552046F8BD10B50023B0FBF2F41B
:101AB00002FB1400092894BF30303730C0B2C8543C
:101AC00020460CB10133F1E7CA18547022469A42FD
:101AD00006DA885CCC5C8C54C8540132013BF6E7D2
:101AE000084610BD031E10B50C4603DBBDE81040D0
:101AF000FFF7DABF2D2001F8010B5842FFF7D4FFA2
:101B0000204610BD044B054900221A600A60044AB1
:101B1000106010221A60704714D0034004D00340B4
:101B200000D00340212810B518D80D4A52F83030A3
:101B300093F880423CB1012211B183F8802010BD9E
:101B400083F8002110BD02EBC00043681A6811B190
:101B500042F0030201E022F002021A6010BD00BF51
:101B6000588C0000212810B537D81C4A02EBC0035E
:101B700001295B68144601D004290FD154F83020A4
:101B8000012082F880024FF4A2721A601A680429B8
:101B90000CBF42F0200222F020021DE052F830205B
:101BA000002082F8800211B18A1E012A12D84FF457
:101BB000807202291A6003D11A6842F003020BE016
:101BC00003290AD11A6842F002021A601A6822F048
:101BD000010201E040F203121A6010BD588C0000AF
:101BE000282838B5604A04460B4611D112780B2AD2
:101BF00004D8C2F10C0201FA02F304E00C2A1CBF63
:101C00000C3A41FA02F31846BDE8384002F052BDE2
:101C100011780125002B05FA01F2D8BF002102DD61
:101C2000934205D32946FFF77DFF2046294697E0DA
:101C30000338C2B2012A01D84C4A06E0202C01D058
:101C4000192C01D14A4A00E04A4A126802FB0332C9
:101C5000CA401D287BD8DFE800F0575F4E337A7A00
:101C6000212A7A7A7A7A7A7A7A7A7A3C450F187ABD
:101C7000707A7A7A7A7A7A673F4B1A6003F59733EB
:101C800040F2444203F5FA735FE03C4B1A6003F5FF
:101C9000973340F2444203F5F87356E0384B1A602C
:101CA00003F5973340F2444203F5F6734DE0354BAC
:101CB0001A6003F5973340F2444203F5F47344E0AD
:101CC000314B1A6003F59F3340F2444203F5F07341
:101CD0003BE02E4B1A6003F59F3340F2444203F57C
:101CE000EE7332E02A4B1A6003F59F3340F2444210
:101CF00003F5EC7329E0274B1A6003F59F3340F29C
:101D0000444203F5EA7320E0234B1A6003F5803365
:101D10004FF45172203318E0204B1A6003F58033E2
:101D20004FF451721C3310E01D4B1A60A3F5DB23F6
:101D30004FF45172A3F5F96307E01A4B1A60A3F54B
:101D4000DB234FF45172A3F2CC731A6038BD7F2BA2
:101D50002046D4BF00210121FFF7E4FE20460121E7
:101D6000BDE83840FFF7FEBEA487FF1F0890034080
:101D700008800B4008800340108003401880034017
:101D80002080034028800340308003403880034097
:101D90004080034048800340109003401890034067
:101DA00010800B4018800B4072B60B4B0B491A6821
:101DB0000B4B1B68096862B6490102D5322A88BFFD
:101DC0000133C2F5BB326021FF32B2FBF1F24FF4B6
:101DD0007A7000FB0320704718E000E004ED00E09B
:101DE0004C8AFF1F38B50446FFF7DEFF054624B9CD
:101DF00038BD013C0AD005F57A75FFF7D5FF401BC9
:101E0000B0F57A7FF5D200F0C9FDF6E738BDFFFFE7
:101E1000204B4FF4000210B51A604FF080721A6028
:101E20004FF000721A604FF080621A604FF000624B
:101E30001A60194B194A1A4C00204BF6FF711860B2
:101E40005960282313609360136193611362936256
:101E5000136393630922226004F5805404342060E4
:101E60006160A360236144F8042C04F5FE24206023
:101E70000C4801600C490B608B600C4B1A6002F03F
:101E8000BDFB4FF4C870FFF7ADFFBDE8104000F098
:101E9000D7BB00BF08E100E0048003400C80034092
:101EA0000080034008800B400C800B4000800B40FA
:101EB000F0B50C4B0C4C1A7842F0020504EBC50649
:101EC00082F00102706009481A700678002E0CBF7B
:101ED0008827C82786F0010647EA0141067044F8C2
:101EE0003510F0BDB88AFF1F0080FF1F308BFF1F29
:101EF000431E032B10B510D872B6094A52F82300BE
:101F000048B1416842F82310064A018832F813406C
:101F1000611A22F8131062B610BD002010BD00BF78
:101F2000A88AFF1F348DFF1F013803280AD872B614
:101F3000054B53F82030002013B101305B68FBE7FC
:101F400062B6704700207047FC8AFF1F10B572B65A
:101F50000123174A1A4412F8012C12071CD59900C4
:101F6000144A52F831402CB902EB43130830586040
:101F7000114B09E041F0010152F8314064B902EB24
:101F8000C103083058600D4B42F831300C4B1A78C1
:101F9000013A1A7062B610BD0133052BD9D162B671
:101FA000074B00221A70BDE8104000F0A7BB00BF2D
:101FB000C88E00000080FF1F88004000C80040005D
:101FC000268BFF1F431E032B30B532D8194A400120
:101FD00040F01000104472B6174CE25C032A09D896
:101FE000DFE802F0160218050830022213E008307C
:101FF000042210E01148124A50F8234014B940F866
:10200000231002E052F82300416042F823100FE051
:10201000032200E00522E25410F0080F01F108034A
:102020000A8843600CBF8823C82343EA0243036045
:1020300062B630BD0080FF1F648AFF1FFC8AFF1F4D
:102040000C8BFF1F2DE9F84FAB4F3C78E4B214F036
:10205000040F3D4619D0A94B1B78A3B1A84A1178AB
:1020600001F0FF0321B1013BDBB2137003B900BEE5
:10207000A44A117801F0FF0329B1013BDBB21370D0
:102080000BB900F067FC04233B7004F0080303F075
:10209000FF02002B00F067829B4B9C4C1A78D2B257
:1020A00015094FEA920840F0E48104EBC80359682F
:1020B00054F83830C3F38303013B0C2B00F2D68174
:1020C000DFE813F095019501D401D401D401D401C6
:1020D000D401D401B001D401D401D4010D008C4D40
:1020E0000A684B688B486B6001218B4B44F8383091
:1020F0002A60DFF85082017092B240F281600023C2
:102100008242C8F800302361A36117D8B2F5D06FBE
:1021100080F01E81B2F5817F00F0CF8006D8802A42
:1021200000F0BA80822A00F0BB8031E140F2023335
:102130009A4200F0D180B2F5A06F1CE042F221007B
:10214000824200F051810ED8B2F5086F00F09E80F7
:10215000B2F5106F40F01C81684B6C4EAA781A7073
:1021600006F180090AE042F221218A4200F008814A
:1021700042F221339A4200F00F8109E1336A1B06D3
:1021800003D5706A083800F0B9FA08364E45F5D123
:102190000026B146DFF8B0A156F80A0028B1D0F801
:1021A00004B000F0ABFA5846F8E74AF806005B4B7B
:1021B000DFF898A1F05056F80A0028B1D0F804B022
:1021C00000F09CFA5846F8E7554B4AF80600F050E4
:1021D000544B23F81900544B19F80320023A032AF0
:1021E00008D8DFE802F002040204002200E0012225
:1021F00003F8092009F10109B9F1040F06F10406F9
:10220000C8D14A4B00221A7001269A46484A494BC7
:102210003244334412F8012C9B0012F0080F1A705C
:102220004FEA860925D000F04BFA38B104EB46138B
:1022300008305860404B44F8393006E09AF80030D6
:1022400044F8390001338AF8003000F039FA49F0D7
:10225000010338B104EBC302083050602E4A44F841
:10226000332006E044F833009AF8003001338AF84E
:10227000003049F00202013649F003090023052E1F
:1022800044F8323044F83930C0D186E01B4B2B4C37
:102290001B7823700B4683E0284C237063707EE02C
:1022A000AA88042A74D8254C920023706370244BAA
:1022B0009B5C9E0773D5217071E0AA8802F07F02B3
:1022C000042A65DC6B88002B62D191001C4A0A4409
:1022D000117821F0020159E0AA8802F07F02042A55
:1022E00056DC6B88002B53D19100154A0A441178B3
:1022F00041F002014AE000BF802007402F8BFF1F02
:10230000B98AFF1F318BFF1F902007400080FF1FFD
:102310001C8BFF1F308BFF1FC8004000548AFF1F1B
:102320000C8BFF1F348DFF1F648AFF1F268BFF1F3E
:10233000C88E000030C8011088004000278BFF1FA6
:10234000C0200740508AFF1FA88AFF1FFC8AFF1F7A
:102350006A88A9889F4B53F8084CA3F10C00BCB1C4
:1023600033F80C6C964209D133F80A6C8E4205D1D1
:10237000120A032A0CBF2378038911E00C33EAE721
:10238000954A1168954A1160A978954A117004E040
:10239000944B0F221A7027E000231C4600E0022312
:1023A000EE88B34238BF1E46402E34BF3546402526
:1023B00020462946FFF77CFD761B2C4403D1402D97
:1023C00012D1354603E0402E34BF35464025204625
:1023D0002946FFF76DFD761B2C4401D1402D03D11A
:1023E000814AC8F8004016800122804B3DE0804BB6
:1023F0001A8842F221039A4210D100237D4AC85C18
:1024000098540133072BF9D11368862B02D17A4BEC
:102410000F221A7000200146FFF74AFD774B44F85F
:10242000383023E0764E3568B5B1DFF8BC81B8F8B6
:102430000090B9F1400F34BF4C4640242846214655
:10244000FFF736FDC4EB09039BB2A8F800300BB9C7
:10245000402C00D12B193360654B1A88B2F5A06F60
:1024600004D100225A709A78664B1A7001225F4B91
:102470006CE004EBC806013D736802F00802A3F1AA
:102480000800EDB202F0FF01002A36D000F036F964
:102490005D485E4B50F82520EAB1516840F82510A0
:1024A00002F108017160595D03290BD8DFE801F0E2
:1024B00002040608032104E0022102E0052100E0F5
:1024C0000421595516F0080F12880CBF8823C82321
:1024D00043EA024342E05A5D032A07D8DFE802F0EC
:1024E00040400204002206E0012204E016F0080F3A
:1024F0000CBF022203225A5532E054F83820120C45
:1025000023F8082C22B3DFF834E123F8061C43F843
:10251000041C5EF825303E4913B94EF8250002E050
:1025200051F8253058603B4B41F8250033F8151021
:102530000A4423F8152000F0C3F810B10830706089
:1025400006E0354B44F838001A7801321A7007E07B
:102550002A4B324A16F0080F08BF134644F83830A9
:1025600008233B7070E5E0071FD520492B482C4C11
:1025700002230B702B4B1A702B4B186098602B4862
:10258000D8601A619A615C60164B0D20187028485B
:10259000FF2303702B700274264A1370264B9F2270
:1025A0001A7001230B70BDE8F88F210604D50D4B7E
:1025B0000D221A7080232B70A20705D51C4B1A78A8
:1025C000D2B21A7002232B70E30644BF10232B7083
:1025D000BDE8F88FD88E00004C8AFF1F448DFF1F86
:1025E000408BFF1FC0200740248BFF1F9420074013
:1025F0001C8BFF1F3C8DFF1FB98AFF1FC8004000C6
:10260000508AFF1F98200740FC8AFF1F648AFF1F23
:10261000548AFF1F348DFF1F268BFF1F8800400048
:10262000688AFF1FB88AFF1F0080FF1FBC8AFF1F38
:10263000882007408C20074084200740A88AFF1F7D
:1026400008B503F0ADF900221A4B0021D1509818BB
:102650000832882A4160F7D1174A106840F4802078
:10266000106002F528326832C3F307201070C3F3FC
:1026700007401B0E10751376FF2302F81C3C02F86E
:10268000143C02F88C3C012302F8083C82F86410E8
:1026900002F8183C094B70226FF450711A700B4409
:1026A0004FF400721A6003F1C04303F5C8231022EF
:1026B0001A7008BD0080FF1F3480044049E400E028
:1026C00072B60C4A1168B1FA81F30B2B02D962B6CB
:1026D000002070474FF00040D84021EA000111600F
:1026E00062B6054948225343C8180022CA504260C6
:1026F000704700BFA887FF1F0084FF1F0C4B4822B4
:10270000C31AB3FBF2F30B2B11D80A4A127822B189
:10271000094A12780AB1FFF719BC72B6074A4FF09E
:10272000004121FA03F311681943116062B6704742
:102730000084FF1F268BFF1F2F8BFF1FA887FF1F03
:1027400010B5104C23686BB120684288531C0244BA
:10275000147A0288934212D3FFF7D0FF094B00226C
:102760001A600DE0084B1B7813B94FF0FF3010BD15
:102770000320FFF7BDFB20600028E5D1F5E743808B
:10278000204610BD3C8BFF1F2F8BFF1F10B50B4C3D
:10279000236813B123686BB902E0094B1B7813B9A6
:1027A0004FF0FF3010BD0320FFF7A2FB2060002890
:1027B000F0D1F5E75A881344187A10BD3C8BFF1FFF
:1027C0002F8BFF1F044B9888044B1B681BB11A8882
:1027D0005B88D31A18447047348DFF1F3C8BFF1F52
:1027E00010B5094B1B786BB1084C206818B1FFF786
:1027F00085FF002323600320FFF77AFB10B1FFF76A
:102800007DFFF8E710BD00BF2F8BFF1F3C8BFF1F24
:102810002DE9F8432D4E012307460C463370002C5A
:102820004FD02B4D2B68A9462BBB4AF2F928294BD8
:102830001B7803F0FF020BB9327015E00420FFF79C
:1028400073FB072808D801233370FFF739FFC9F855
:10285000000080B91D4B1870B8F101081E4B01D063
:102860001A782AB101221A704FF0FF30BDE8F883C0
:1028700000F094F8DBE72968174A488800231370B2
:10288000C0F14002944238BF224600F1080C1044C7
:102890008C444880A41A934204D0F85C0CF80300DE
:1028A0000133F8E71F444B883F2B06D940230B80A8
:1028B0000420FFF787FB00232B60084B05221A70CA
:1028C000ADE734702046BDE8F88300BF328BFF1FB0
:1028D000348BFF1F2F8BFF1F388BFF1F318BFF1F88
:1028E00007B502AB012103F8010D1846FFF790FF71
:1028F00003B05DF804FBFFFF2DE9F041114B1B789D
:10290000F3B1114E114B3468114D01271F709846D9
:102910004CB1002763882F70042023802146FFF7E5
:1029200051FB376009E0FFF7CBFE014620B10420E0
:102930002C70FFF747FB00E02F70002388F8003071
:10294000BDE8F0812F8BFF1F348BFF1F328BFF1FE1
:10295000318BFF1F38B50E4B1B7803F0FF05ABB969
:102960000C4C216831B14B880B800420FFF72AFB07
:10297000256038BDFFF7A4FE014620B10420BDE864
:102980003840FFF71FBB044B01221A7038BD00BF4F
:10299000328BFF1F348BFF1F318BFF1F10B50E4C86
:1029A0002378BBB901232370FFF70CFF08B103F0B4
:1029B00040F802F039F908B101F001FD02F092FC93
:1029C00008B101F084FD02F01FFF08B101F007FE1D
:1029D0000023237010BD00BF418BFF1F4FF0FF305D
:1029E000704770477047704770477047704770472F
:1029F0007047704708B5036800215B6A984708BDB7
:102A000030B583680268DC1003F00701125D802591
:102A100045FA01F10133836002EA010030BD70B56F
:102A2000856843686E18741EC4F3CF049C421ED29E
:102A3000C5F3CF03A342026805F0070504D10D4496
:102A4000D35CC5F1080507E0145DD35C0D4404EBCD
:102A500003239BB2C5F1100543FA05F5012303FAE0
:102A600001F101392940C9B28660084670BD0020D5
:102A700070BDF8B50646022501243046FFF7C0FFB9
:102A800028B930462146FFF7CAFF28440BE001343D
:102A9000E1B26D00CCB2AFB2072CBDB2EDD1304681
:102AA000FFF7BDFF384480B2F8BDD2B2DBB2C9B285
:102AB000C27003719208DB08817043EA4213C908AF
:102AC00043EAC12101807047437B012B10B502D836
:102AD000012902D80CE001290AD8C388828DC2EBF3
:102AE000430212B21BB292FBF3F403FB142383855F
:102AF0000024022941730473C388828808D0032903
:102B000001D0012907D1038101234281037310BD44
:102B10000281438110BD02814381447310BDFFFFD8
:102B200038B591422A4B036034BF8BB293B29142C5
:102B300083808CBF8BB293B2914204460181C380E3
:102B400094BF002101214281FFF7BEFF0123A3733F
:102B500084F82A3084F82B301E4B00250022C4E96B
:102B60000823A585658684F82850062001F010FE0C
:102B70008570C57005710580E064062001F008FECF
:102B80008570C570057105802065062001F000FE86
:102B90008570C570057105806065062001F0F8FD3F
:102BA0008570C570057105802946A0652A46606D4F
:102BB000A5642B46FFF779FF636DA361FF21A06D2C
:102BC0000B460A46FFF771FFA36D6361204638BDCF
:102BD000708D00000000F03F0A784B785A2A01D12E
:102BE000462B04D0002303614FF0FF3070478B78F1
:102BF000013B012BF6D8016100207047006970B5D8
:102C0000B0B1052400FA84F35A7872B19E78DD7869
:102C10008A4205EB0625ADB204D12DB2072D06DDA3
:102C2000187905E02C44A4B2ECE7104600E000203F
:102C300000B270BD2DE9F04F056987B08246894624
:102C40009046002D4AD0002425464FF69C77264614
:102C5000D9F80830A1B2994240D24846FEF7F2FEB8
:102C600000220390DAF8100004904FF0050C029255
:102C7000049901FA8CF35978A1B1D87893F802B08D
:102C800000EB0B2B1FFA8BF0DDF80CB0594505D18A
:102C900001B2072906DD1B790293012284441FFA41
:102CA0008CFCE5E7B8F1000F0DD033B218F9031032
:102CB00011F1630F07DB43448FB293F901306333A3
:102CC000A4BF0136B6B23AB102983BB20544ADB2E8
:102CD000643318BFED19ADB20134B9E728B207B0BB
:102CE000BDE8F08F2DE9F04788B0044688461546C8
:102CF000684612B9FEF718FE02E08B68FEF7B5FED3
:102D0000694604A8FEF710FE002204A92046FFF73A
:102D100091FF064604A8FEF78FFDB4F93430B4F9EC
:102D200008201E44B4F93C30D31A9E4235DC40469C
:102D30000A21FEF797FE00282FDA4FF6FF7625E0EE
:102D40000A2F31D00135ADB2BA46D8F808309D42CD
:102D50001CD229464046FEF775FE074639462046F6
:102D6000FFF74CFF202F00FA89F01FFA80F9E7D116
:102D7000BAF1200FE6D0B4F93420B4F90810B4F950
:102D80003C3002FA89F2CB1A9A4210DD6846FEF70F
:102D900053FD30B208B0BDE8F0874FF0000AADB285
:102DA000D1464FF6FF76D0E7330404D4E3E70A2F89
:102DB000AEB2C7D1EAE7AEB2E8E7F8B504468D781F
:102DC000A369CF789E78C2F1FF0016FB02F600FBE4
:102DD0000566DD7815FB02F500FB07551F790B79B9
:102DE00017FB02F200FB0320FF2396FBF3F195FB98
:102DF000F3F290FBF3F3FF29A8BFFF21206DFF2A18
:102E0000A8BFFF22FF2BA8BFFF23FFF74EFE206DB8
:102E1000F8BD08B503680A469B68C1F30721D2B222
:102E2000984708BD08B50A880368110A9B68D2B2A2
:102E3000984708BDF7B50029044674DB002A72DB09
:102E4000B0F908308B426EDDB0F90A3093426ADD8A
:102E5000877BB0F92C30407B0E4615465FB30328C4
:102E60004ED8DFE800F00207111E002B48DD9A4221
:102E700046DB58E0002B01DD994254DAB4F90460D6
:102E8000B21A0D46561E3BE0002B01DD9A424ADA8B
:102E9000B4F90460B4F90650711AAA1A4E1E551EF0
:102EA0002EE0002B01DD99423DDAB4F906506D1A8F
:102EB0001646013D24E003281CD8DFE800F0020498
:102EC0000A14D51816E0B4F90460B21ACD18561ECB
:102ED00010E0B4F90460B4F90650711AC2EB45056C
:102EE0004E1E013D05E0B4F90650C1EB4505013D1C
:102EF0001646ED1AB4F9063095FBF3F203FB1255B2
:102F0000236820461B6A98472AB22368009231B290
:102F10001D6820460B46A84720466169FFF782FFDF
:102F20002046FFF767FD03B0F0BD10B5437B022BD1
:102F300011D0032B22D0012B2DD1838848880A88F9
:102F40004A80013B9BB2181A0880C8888A88CA80C8
:102F50001B1A8B801FE0C3884A88013B9BB29A1AD8
:102F60004A80CA889B1ACB8083880A88013B9BB21F
:102F70009A1A0A808A889B1A8B800CE0C38808887A
:102F80004A880A80013B9BB2181A48808888CA8800
:102F90008A801B1ACB80CA884B8814B218B284422C
:102FA000BCBF4A80CB808A880B8814B218B2844296
:102FB000BCBF0A808B80012010BDF0B585B00D46E6
:102FC000ADF80A30BDF92830ADF80C3002A9BDF9D2
:102FD0002C30ADF808200446ADF80E30FFF7A5FF01
:102FE00000286BD0236820461B6A9847A37B206883
:102FF000BDF90820BDF90C602BB1BDF90A3000966F
:10300000BDF90E1052E0637BB4F82CE0BDF80A70F5
:10301000BDF80E10012B13D9B4F906300FFA8EFE4D
:10302000CEEB030E0EF1FF3E9EFBF3FC03FB1CE315
:103030009BB21F440B44ADF80A70ADF80E3007E0A8
:103040001FFA8EF31F441944ADF80A70ADF80E1044
:10305000E788BDF90A30009639B293FBF1FE01FB17
:103060001E33BDF90EE09EFBF1FC01FB1CE19BB29F
:1030700089B2ADF80A30ADF80E101BB209B28B421E
:1030800014DD013F3FB20197466829462046B0470C
:10309000BDF90C1023680091BDF90E1001915E6816
:1030A000BDF9082020462946002303E00191466827
:1030B00029462046B0472046FFF79CFC05B0F0BDEE
:1030C000F7B5154602681F46136A04460E46984730
:1030D000BDF920306269013F013B37442B443FB2C8
:1030E0001BB211880193204632462B460097FFF70A
:1030F00064FF2046FFF77EFC03B0F0BD73B5836923
:10310000B0F90A20867B45690092002143618173F2
:10311000B0F908300A460446FFF7D2FF6561A6738E
:1031200002B070BD2DE9F04F994689B090F82B3070
:103130009DF9486004460D469246002B00F0DE8063
:1031400090F82A30002B00F0D98081EAE17BABEBCC
:10315000E17B1FFA8BFB0FFA8BF7012F75DDF3B2C2
:10316000DA0772D50F2FD4BFC7F34F07082713F024
:10317000020F14BF00230723079300294FF6FF73A4
:10318000A8BF012303930025079B0FFA87FC0FFAC2
:1031900083F8C5EB0C035B43022293FBF2F0628ED3
:1031A000CDF808C040441044FEF71CFE06F00203B0
:1031B000DBB20493039B1BB20593049B05995BB29E
:1031C0000693009320464B465246FFF7ABFF01356E
:1031D000DDF808C02BB26345D6DB6FF0010606FBB5
:1031E0000CFC0CFA8BF600252BB2B34215DA049BCB
:1031F0000093039B204619B252464B46FFF792FFBD
:103200000FFA8BF3962BDBBF638E08F101000120D0
:10321000C018FEF7E7FD0135E6E70125069B0093A0
:103220005246204605994B46FFF77CFF638E15FBFF
:1032300005F008EB600001351844ADB2FEF7D2FD91
:103240002AB23BB29A42E9DD58E0A369D4F814806F
:103250006361236894F80E901B6A4FF0000A84F8AB
:103260000EA02046984706F0020303F0FF0693B134
:10327000554510DD617BB4F9043011F0010103D133
:10328000009720460A4604E00093204651465246E5
:103290003B46FFF715FFA38D2B44A385A28D13B2E8
:1032A000002B03DAE3881A44A285F7E7B4F9062075
:1032B00093FBF2F102FB1133A38523682046DB6800
:1032C000984796B1002D10DA617BB4F9043011F003
:1032D000010103D1009720460A4604E00021009333
:1032E00020460A463B46FFF7EBFE2368C4F81480ED
:1032F00084F80E905B6A20460121984709B0BDE82A
:10330000F08F07B5B0F9043000920022FFF70AFFF2
:1033100003B05DF804FB73B5456914460E463246AA
:1033200029888DE818002346FFF747FE02B070BDDC
:1033300037B50C4641691546098801930094224629
:103340002B46FFF73AFE03B030BD2DE9F04F9DB09C
:103350000446289E289F3679BDF998500D960C9208
:103360007A7903930995FB79BD790D9F0E9502F04B
:103370007F06B81B80B21890189D159603F07F0049
:10338000C0EB050B6669A7690896D20989461FFA42
:103390008BFBBDF99C100597079205D00E9D4A1B2B
:1033A000101A80B20A9001E0CDF828B0039E159A59
:1033B000099DB0B2024492B297B20692AAB20E9D93
:1033C0001A9789B215440A4492B20D9F1692BDF91C
:1033D000A42011911FFA85FA3844083A1FFA8AF698
:1033E00080B212B2B9F1010F1B961090199202D15E
:1033F0001B0640F1B581079D25B10A9E0AF1FF33F6
:10340000334403E0069F0A9D7B1E2B44289E14969E
:103410009BB24FF6FF75002617932F460496149E15
:103420002898331A199E1BB2B34280F27281149EFF
:10343000367A0F96B9F1010F06F07F0608D10F9882
:1034400020F07F0303F0FF022BB1CDF8489008E095
:103450000125129505E094F93830012B40F0518197
:103460001292049D94F938300FFA85FB0A9D2DB213
:1034700013959BFBF5F50B950B981399012BADB2AA
:1034800001FB10BB37D13BB22AB2934233D0059F28
:103490006761079FC7B1002B0BDA119F0399099A47
:1034A0007B1C159F1BB2009320467B1CFFF708FE78
:1034B000F3E10B9F0699099A3944169F204609B2F9
:1034C0003BB2FFF735FFE8E1002B0ADA0E9F0399C4
:1034D000099A7B1C0D9F009320467B1CFFF7F0FD93
:1034E00014E00B9A109F03995244204612B23BB24B
:1034F000FFF711FF0AE0079848B1DDF818800B9933
:1035000088441FFA88F80AEB0B0C08E02F46DDF818
:103510001880DDF82CC0D8441FFA88F8D444129AD9
:103520001FFA8CFC22B10C9B13B90898606101E072
:1035300005996161B9F1010F1FFA8BFB38D00F9A21
:1035400012F0C00F00F0BB80B9F1020F05D1049B4F
:1035500002F03F0633449BB204930F9820F07F03A0
:1035600003F0FF0223BB77E051BBB9F1010F06D195
:10357000049B0A990B44CBEB03039BB204930A9A76
:10358000079B01355E44B61A1FFA85FCB6B21FFAD6
:103590008CF5002B00F08381069884441FFA8CF888
:1035A000DDF86CC094F93830012B1BD04FF0000BC4
:1035B00033B21398129903FA8BF38342D4DC31E0CF
:1035C000DDF85CE007980FFA88F10FFA8CF20FFA39
:1035D0008EF318B12046FFF7ABFEC6E72046FFF793
:1035E0009AFEC2E7059F6761079F20464FB1169F6D
:1035F000099ACDF808C00FFA88F13BB2FFF798FEA0
:1036000008E0109F0399CDF808C00FFA8CF23BB286
:10361000FFF781FE0C9FDDF808C00FB9089F6761B6
:103620002F46C3E7A9B1079B0FFA88F10FFA8CF276
:103630003BB1B4440CF1FF3320461BB2FFF778FED8
:103640005CE0B04408F1FF3320461BB2FFF763FE95
:1036500054E00898606151E0B9F1020F55D194F936
:103660003830012B51D1059D656115460B9F13988C
:1036700031B2BAB2ABB201FA8BF19F188142BFB23C
:1036800016DD0A9F5E44F61B079FB6B2002F00F0BE
:103690000C81069F791C0A44169F9918204609B28E
:1036A000099A3BB2FFF744FE01354FF0000BDDE70E
:1036B0000C9D002D40F00581089E666101E1B9F185
:1036C000020F22D10C9E16B1059E66610CE00F9E82
:1036D0000899CDF808C0B200204602F0FC02FFF7BE
:1036E0006CFBDDF808C0606120460FFA88F10FFA24
:1036F0008CF2FFF79FFB0498461C04E0B9F1010F20
:1037000003D104990E44B6B20496149E0136149661
:1037100085E694F93830012B40F0BA80079E059F6A
:103720006761ADB276B1069F189E099A791C119F08
:10373000731E29445D1B7B1C1BB20093204609B2FB
:103740002BB2A3E0119E0E9F0D9BF11B0AF101020B
:103750002A444D1B2DB200952046039912B295E0E4
:103760000C9D0DB1059E66614FF6FF7500262B4638
:10377000199F32B2BA4274DA289A94F93810324456
:10378000F700127A04920FFA8BF897FBF8F208FB15
:1037900012770129BFB295B223D119B228B2814262
:1037A0001FD00598606100290CDA0E99DDF834E02D
:1037B000099A4B1C0093204603990EF10103FFF771
:1037C0007FFC09E0DDF840E003995244204612B244
:1037D0000FFA8EF3FFF79FFD0C9808B90899616105
:1037E0002B464FF0000909FA87F242451ED194F9A1
:1037F00038100135C9F10007AAB20129BFB295B24C
:1038000014D118B229B2884210D0DDF840E0059BEF
:10381000636152442046039912B20FFA8EF3FFF708
:103820007AFD0C9808B9089961612B46C9F1070225
:103830000121049801FA02F202420BD10699029387
:10384000494439440AEB0502204609B212B2FFF797
:10385000F1FA029B09F10109B9F1080FC3D1013650
:1038600086E794F93830012B12D1059E119F6661CD
:103870000E9EADB2B91B0AF101022A440D9F4D1BE9
:103880002DB203990095204612B27B1CFFF718FC5D
:10389000089D65611DB0BDE8F08F2F462DE6D4442C
:1038A0001FFA8CFCDDF868807CE60AF101010A440D
:1038B000109F03991A44204612B23BB2FFF72BFD2A
:1038C000F2E63D4621E72DE9F04F91B098460369B5
:1038D0009DF868500A950446002B00F0EE8093F89E
:1038E00002C0CDF818C00CF1FF30012800F2E580CD
:1038F000DF78656994F839300895A57BA186E28662
:1039000007956BB141460CA8FEF70EF820460CA9AE
:103910000022FFF7E7F906460CA8FDF78DFF01E04E
:103920004FF0FF3600254FF69C7CA946CDF814C019
:10393000AB46D8F808309D4280F0B1804046294619
:10394000FEF780F8B5428246099544D1202801D07F
:103950000A2801D16E1C9FE0638FE28FA386E38E5D
:1039600013443B449BB294F840209EB2E6862AB3AF
:10397000627B12F0FD0F21D1B4F84220618907FA71
:1039800086F606FA82F608B2864217DD606C10B140
:10399000A669A06100E00646791A11441944204640
:1039A00009B20322FFF7ADFC06B1A6610023A373A1
:1039B0006389B4F84220DB1B9B1AE38641460CA8BE
:1039C000FDF7B2FF20460CA92AB2FFF78BF9064695
:1039D0000CA8FDF731FF206904900521049B03FA30
:1039E00081F253789BB392F802C0CDF82CC00B98AB
:1039F00092F803C053450CEB002C1FFA8CFC22D12B
:103A00000FFA8CF1072921DD94F8393092F80490EF
:103A100053B1B4F93430B4F908C0B4F93C004B44A4
:103A2000C0EB0C00834244DCB4F93600B4F9343006
:103A300002928DE881000391204606990A9AFFF7C9
:103A400084FC012303E0614489B2C7E700231B988B
:103A500098B10FFA8BF2DDF86CC01CF9021011F16D
:103A6000630F0ADB624489B292F901200591633247
:103A7000A4BF0BF101021FFA82FB6BB1DDF814C089
:103A8000A38E0FFA8CF264324B4418BFDDF814C0D9
:103A90009BB218BF6344A3860135ADB249E7079DC9
:103AA00015B10123A37301E0079DA573089D65610E
:103AB00003E0013DADB2099EEEE711B0BDE8F08F25
:103AC0002DE9F041056886B098462B6A04460E46FB
:103AD00017469847414602A8FDF726FF00230093AA
:103AE0000C9B019331463A4602AB2046FFF7EBFEB2
:103AF00002A8FDF7A1FE2046FEF77CFF06B0BDE858
:103B0000F0818A880B8830B515B21CB2A542BCBFC3
:103B10000A808B80CA884B8815B21CB2A542B8BFF8
:103B2000CB80B1F90030B8BF4A80002BB1F9044016
:103B300005DA002C01DA002030BD00230B808388D9
:103B40001AB2944205DBB1F900409442F3DA013B2A
:103B50008B80827B6AB1437B012B0CD9B0F9064084
:103B6000B0F92C30E31A93FBF4F504FB15339BB248
:103B700002E0134600E00023B1F902401DB2AC425E
:103B8000B1F9064002DAAC42D5DB4B8032B1437B5F
:103B9000012B03D8838D1AB2002A00DCC3881AB225
:103BA000944205DBB1F902009042C4DA013BCB80BC
:103BB000012030BD2DE9F04F99B0044602AF8A468E
:103BC0001D46002B00F06E811B785A2B40F06C8153
:103BD000EE7995F805C06B78A97895F803B095F85B
:103BE0000490C7F838C0FF2E95F8068000F05E817B
:103BF00095F808C0687A00EB0C2080B21FFA80FCB0
:103C000038620FFA8CF00028C7F81CC0C0F250814F
:103C100095F80AC05FEADC1C40F04C8106F1070E03
:103C20000EF4FC7EADEB0E0D0DF1080C8000B960BA
:103C30007B60C7F828C07A6300F0ACFD2268F863A7
:103C4000126A20469047B9687B68FD64090201EB5F
:103C500003435B440C33B96B3B65BAF1000FCAF107
:103C60000003A8BF0023FB620B0203EB0949C14418
:103C700000236022C7F814907A654FF00109BB63F6
:103C80009B4607F14C007B60FEF7BAFE80467B68DE
:103C900007F14C00B8F1000F5DD10821FEF7BFFE1F
:103CA0007B680546B9F1000F38D1D7F824C04FEA38
:103CB0000C2292B20243D7F81CC0F86B92B203F107
:103CC000010840F823200FFA8CF3984529D1D7F842
:103CD00034C0A7F844A01FFA8CF3D7F820C0A7F887
:103CE00046300AF1FF326244204607F14401A7F84A
:103CF0004820A7F84A30FFF718F938B1204607F1F5
:103D00004401FFF7FEFE002840F0DA80D7F834C007
:103D10000CF1010CC7F834C0002303E07862C146FF
:103D200002E043464FF00109D7F838C00BF101001B
:103D30000CF1010CC7F838C080B20FFA8BFBD7F832
:103D400028C081B20CF80B500DB2B542C0F29A8077
:103D5000811B89B296E07B60FEF78BFE0138C0B212
:103D6000386107F14C00FEF784FE0138C0B27B6871
:103D7000F8600025F9681FFA8BFE1FFA85FC0CEB32
:103D80000E008D4280B26FD03A69C2EB0E016144E1
:103D900089B20A0401D53144FAE70FFA81FCB4452F
:103DA000C7F830C002DB891B89B2F6E70FFA80FC46
:103DB000B445C7F818C002DB801B80B2F6E7D7F81D
:103DC00028E0D7F830C01EF80C10B9F1000F04D06D
:103DD000796298464FF0000939E0D7F824C0F86BB3
:103DE0004FEA0C2292B2D7F81CC0114303F101082C
:103DF00040F823100FFA8CF3984526D1D7F834C039
:103E0000A7F844A01FFA8CF3D7F820C0A7F84630D3
:103E10000AF1FF326244204607F14401A7F8482026
:103E2000A7F84A30FFF781F838B1204607F144017E
:103E3000FFF767FE002840F08B80D7F834C00CF104
:103E4000010CC7F834C04FF000084FF00109D7F853
:103E500028E0D7F830C01EF80C30D7F818C001356C
:103E60000EF80C30434685E7D7F838C0AB44AC4475
:103E70001FFA8BF1C7F838C008B2B04202DB891BC9
:103E800089B2F9E7D7F838C0D7F814E0F44501DC77
:103E90008B46F6E6F86B00F07FFC2046FEF7AAFDA5
:103EA000002008E0FF2006E0FE2004E0FB2002E006
:103EB000FA2000E0F92040B25C37BD46BDE8F08F43
:103EC000B7F94A0000902068B7F94830D0F800C030
:103ED000B7F94410B7F946202046E047B7F94490B7
:103EE000B7F94830994506D1B7F94A90B7F9463045
:103EF000C3EB090901E0C9EB0309637BBAF1000FC9
:103F000009F10109B8BFCAEB0909012B0DD8D7F88F
:103F10002C80C845BFF6FAAEFA6B204632F928105D
:103F2000FEF777FF08F10108F3E709F1FF39C14512
:103F3000B8BFC846D7F82CC0E045FFF6E7AEFB6B2C
:103F4000204633F92810FEF764FF08F1FF38F1E747
:103F5000B7F94A0000902068B7F94620B7F9483011
:103F6000D0F800C0B7F944102046E047B7F9442024
:103F7000B7F948309A4205D1B7F94A20B7F9463027
:103F8000D31A00E09B1A627BBAF1000F03F101091A
:103F9000B8BFCAEB0909012A0DD8D7F82C80C8454B
:103FA000BFF64BAFFA6B204632F92810FEF731FF0F
:103FB00008F10108F3E709F1FF334345B8BF98461C
:103FC000D7F82CC0E045FFF638AFFB6B204633F93D
:103FD0002810FEF71EFF08F1FF38F1E7164B1A68AC
:103FE00042F480521A60154B154A1A60154ADA607D
:103FF00002F180421A61144A1A60144B1B78DA07E6
:1040000055BF134A134A4FF410714FF4007113F067
:10401000020F11600CBF104910495B074FF400728A
:1040200054BF0F4B0F4B0A6054BF4FF410724FF444
:1040300000721A60704700BF3C80044000C002401C
:1040400001401F000110003800001F80488AFF1F38
:1040500018B0044008C004401CB004400CC0044028
:1040600014B0044004C00440A0F10903012B0BD993
:1040700000F0FB03022B07D00F2805D014380328CB
:104080008CBF0020012070470120704738B50546DD
:104090000C46FFF7E9FF60B32046FFF7E5FF00B9E4
:1040A00038BD022D01D10A2C06E00A2D01D1022CC7
:1040B00002E0062D03D1092C08BF002038BD092DD0
:1040C00001D1A01F12E0142D02D1B4F117000DE0B0
:1040D000172D02D1B4F1140008E0152D02D1B4F16E
:1040E000160003E0162D04D1B4F1150018BF01200D
:1040F00038BD38BD023815283AD8DFE800F00F394E
:104100003939193939150B39393939333939393997
:104110001F292D234FF40072164B02E0164B4FF46B
:1041200000721A60012070474FF40072134B02E0D6
:10413000134B4FF400721A60022070474FF4007264
:10414000104B02E0104B4FF400721A6004207047CD
:104150004FF400720D4B02E00D4B4FF400721A60E9
:10416000082070470B4B4FF400721A601020704704
:104170000020704710B0044000C004400CB0044060
:1041800010C0044014C0044008B0044018C00440EB
:1041900004B0044000B00440844641EA000313F038
:1041A00003036DD1403A41D351F8043B40F8043B3E
:1041B00051F8043B40F8043B51F8043B40F8043B01
:1041C00051F8043B40F8043B51F8043B40F8043BF1
:1041D00051F8043B40F8043B51F8043B40F8043BE1
:1041E00051F8043B40F8043B51F8043B40F8043BD1
:1041F00051F8043B40F8043B51F8043B40F8043BC1
:1042000051F8043B40F8043B51F8043B40F8043BB0
:1042100051F8043B40F8043B51F8043B40F8043BA0
:1042200051F8043B40F8043B403ABDD2303211D340
:1042300051F8043B40F8043B51F8043B40F8043B80
:1042400051F8043B40F8043B51F8043B40F8043B70
:10425000103AEDD20C3205D351F8043B40F8043B40
:10426000043AF9D2043208D0D2071CBF11F8013B3E
:1042700000F8013B01D30B8803806046704700BF04
:10428000082A13D38B078DD010F003038AD0C3F113
:104290000403D21ADB071CBF11F8013B00F8013BF5
:1042A00080D331F8023B20F8023B7BE7043AD9D3B4
:1042B000013A11F8013B00F8013BF9D20B78037089
:1042C0004B7843708B7883706046704708B50368FD
:1042D000C9B21B68984708BD08B50368C9B21B6816
:1042E000984708BD08B50368C9B21B68984708BD60
:1042F00008B50368C9B21B68984708BD4B0803F1AD
:10430000376000F5D830B0FBF1F000F047BA10B5D7
:104310004B0803F1376000F5D8301446B0FBF1F0DC
:1043200000F03CFA2046BDE8104000F09BBA00F0D7
:10433000C3BA084600F0F4BA084600F043BB08468A
:10434000114600F009BB08B5084600F061FB0030DB
:1043500018BF012008BD08B5084600F07BFB0030FF
:1043600018BF012008BD00F05FBC00F097BC00F052
:104370006BBC00F03DBC00F0A9BC00F043BC08B52C
:10438000084600F08DFB012008BD08B5084600F086
:1043900087FB012008BD10B508461446114600F001
:1043A000C9FB204610BD38B508460D4601F06DFC2E
:1043B00004462146284600F0BDFB204638BD704724
:1043C000044B00221A714FF47A711A73024A9960F1
:1043D0001A607047648BFF1FB08D000008B503683A
:1043E000C9B21B68984708BD08B50368C9B21B6805
:1043F000984708BD08B50368C9B21B68984708BD4F
:1044000008B50368C9B21B68984708BD4B0803F19B
:10441000376000F5D830B0FBF1F000F0FFBC10B50C
:104420004B0803F1376000F5D8301446B0FBF1F0CB
:1044300000F0F4FC2046BDE8104000F053BD00F051
:104440007BBD084600F0D0BD084600F01FBE084600
:10445000114600F0E5BD08B5084600F03FFE00300B
:1044600018BF012008BD08B5084600F059FE00300D
:1044700018BF012008BD00F035BF00F06DBF00F08F
:1044800041BF00F013BF00F07FBF00F019BF08B5B7
:10449000084600F063FE012008BD08B5084600F09C
:1044A0005DFE012008BD10B508461446114600F017
:1044B0009FFE204610BD38B508460D4601F0E5FBCD
:1044C00004462146284600F093FE204638BD70473A
:1044D000044B00221A714FF47A711A73024A9960E0
:1044E0001A607047748BFF1F108E000008B50368B8
:1044F000C9B21B68984708BD08B50368C9B21B68F4
:10450000984708BD08B50368C9B21B68984708BD3D
:1045100008B50368C9B21B68984708BD4B0803F18A
:10452000B76000F55840B0FBF1F000F0D5BF10B512
:104530004B0803F1B76000F558401446B0FBF1F0AA
:1045400000F0CAFF2046BDE8104001F007B801F0B6
:104550002FB8084601F060B8084601F0A1B8084637
:10456000114601F075B808B5084601F09BF8003017
:1045700018BF012008BD08B5084601F0B5F80030A5
:1045800018BF012008BD01F03FB901F077B901F073
:104590004BB901F01DB901F089B901F023B908B593
:1045A000084601F0BFF8012008BD08B5084601F033
:1045B000B9F8012008BD10B508461446114601F0AF
:1045C000FBF8204610BD38B508460D4601F05DFBEE
:1045D00004462146284601F0EFF8204638BD7047D2
:1045E000044B00221A714FF47A711A73024A9960CF
:1045F0001A607047848BFF1F708E000010B5204B2F
:104600002048214960221A70E1225A701F4B204A2B
:104610001C78204B082C01D1012402E00A2C03D184
:1046200039240460132005E00C2C0CBF35243D24F4
:1046300004601220086014601860174B17491B783B
:10464000174A03B101230B601360164B164A197801
:10465000164B012901D880210BE0042901D88421BF
:1046600007E0082901D8852103E0102994BF86219D
:104670008721116019600E4B01221A7010BD00BF16
:104680000040074008B003400CB00340AC87FF1F58
:1046900008B00B400CB00B40958BFF1F20B00340BF
:1046A00020B00B40AD87FF1F24B0034024B00B4067
:1046B000948BFF1F084B1A6842F480521A60074B14
:1046C0001A78074B0AB1802200E0C0221A70054B0D
:1046D00080F30C00188070472C800440958BFF1FDE
:1046E00021C00C4000C00C40024B1A6801321A6015
:1046F000704700BF4C8AFF1F08B50B4C2368580356
:1047000001D5FDF79FFC2368590501D500F002FB98
:1047100023681A0501D500F05BFE2368DB04ECD5A5
:1047200001F0D6F8E9E700BF3480044008B5FFF790
:10473000E3FFFFFF014B10221A8070470020054065
:104740007047FFFF024A136818441060184670470C
:10475000B087FF1FEFF313839BB9EFF3108098B975
:10476000EFF3058323B10F2B04D9084A985C01E0CD
:104770004FF48070EFF311833BB1834238BF18468A
:1047800070474FF0FF30704718467047F0E300E085
:1047900001F09AB901F098B901F09EB9234B1A685B
:1047A00042F480621A60224A00231370214A137077
:1047B000214A1370214A1370214A1370214B1B7830
:1047C0002BB1152B07D140F213321F4B02E01F4BC8
:1047D00040F213321A601E4B1B78012B05D0052BBB
:1047E00007D14FF451721B4B02E01B4B4FF4517237
:1047F0001A601A4BC0F344321A70C0F347125A7051
:104800000221042200F01F0098729A70D9745A7520
:1048100088221A743C22DA70114B40226FF44A71DC
:104820001A700B444FF400521A60704734800440F1
:104830001F8CFF1F9D8BFF1F288CFF1F208CFF1FCD
:104840009C8BFF1FDE8BFF1F18C0044040A004405C
:10485000B487FF1F1CC0044044A0044000A00640D1
:104860002DE400E0134A937800F0030103F0EC0319
:104870000B43410748BF43F01003937000F00F0350
:10488000042B0C4903D18B7943F040038B7153798E
:10489000C20603F0EF03074A48BF43F01003537109
:1048A0009379810603F0EF0348BF43F0100393713F
:1048B000704700BF00A0064008B5114B1B685B05A0
:1048C00000D408BD0F4B1A7802F0FF0312B1FEF7B7
:1048D00065F8F7E70C4A4FF4005111600B4A0C4998
:1048E000D37040F203120A604A600A4A13700A4AFF
:1048F00013700A4B1B680BB101221A7008BD00BF70
:10490000348004409C8BFF1F84E100E000A006403F
:1049100040A004401F8CFF1F9D8BFF1F988BFF1F23
:1049200038B50446094B1B7803F0FF05002BF9D17D
:1049300020460121FDF716F920462946FDF7F2F839
:10494000034B53F83420034B1A6038BD9C8BFF1F78
:10495000588C0000248CFF1F10B509B140F0800076
:10496000144A13789842144622D0134A126852050A
:104970001DD503F07F03012B04D0052B05D10022A8
:104980000E4B01E00E4B00221A60002900F07F025E
:104990000CBF44236023012A05D0052A07D143F424
:1049A0004073064A02E0064A43F4407313602070E5
:1049B00010BD00BFB487FF1F348004401CC00440FA
:1049C00044A004400E4A1378984218D00D49096853
:1049D000490513D52BB1152B05D10B4B00211960BF
:1049E00001E00A490B6028B1152807D140F21331C4
:1049F000054B02E0054B40F213311960107070470F
:104A0000DE8BFF1F3480044018C0044040A00440E7
:104A10000D4A38B5146814F480624FF0000410D0C9
:104A200021280A4D0AD80A4A012152F830302B6059
:104A3000FDF798F82B681C70012038BD2C602046CB
:104A400038BD104638BD00BF34800440988BFF1F2E
:104A5000588C00000E4B1B6813F4806316D012288C
:104A60000C4B03D140F202310B4A04E0142809D167
:104A70000A4A40F2023111605A7B42F001025A7335
:104A8000012070475A7B02F0FE025A7300207047E3
:104A90003480044000A006400CA0044014C0044030
:104AA000F8B51D4B1B685A05064633D51B4B1B68D2
:104AB0000BB101221A701A4B1C780134402C1F468E
:104AC00028BF0024174D2B78A34218D1FFF742FED0
:104AD00040280FDC144A13791B06F3D52B781349B1
:104AE0000133402B28BF0023C95CDBB2C9B2D171AE
:104AF0002B70E7E7FF28E5DDFDF750FFE2E70B4B02
:104B0000F6B21E550A4B01221A70074BE4B2BC22C2
:104B10003C70DA70F8BD00BF34800440248CFF1F65
:104B2000288CFF1F208CFF1F00A006409E8BFF1FBC
:104B30009C8BFF1F274B1B685A052DE9F047074642
:104B40008A4644D5244B1B680BB101221A703D469E
:104B500007EB0A039D4237D2DFF890801F4E98F88A
:104B6000004096F800900134402C28BF00245FFAE2
:104B700089F9A1451DD11A4BBC22DA70FFF7EAFD75
:104B800040280FDC164A13791B060FD533781549D8
:104B90000133402B28BF0023C95CDBB2C9B2D171FD
:104BA000337003E0FF2801DDFDF7F8FE33784B4555
:104BB000E4D00C4B15F8012B1A550B4B0122E4B233
:104BC0001A7088F80040C3E7054BBC22DA70BDE8D4
:104BD000F08700BF34800440248CFF1F208CFF1F0F
:104BE00000A006409E8BFF1F9C8BFF1F288CFF1F81
:104BF00008B5034B1B7813B1FDF7D0FEF9E708BDEC
:104C00009C8BFF1F064A074B1B781078DBB2C0B2A3
:104C100083422CBF3F3000F1FF30C01A704700BF05
:104C2000208CFF1F288CFF1F054B1878054B1B7825
:104C3000C0B2DBB2984238BF4030C01A704700BFE4
:104C40001F8CFF1F9D8BFF1F10B5104B10491A784A
:104C50000B78D2B2DBB29A4214D00133402B28BF7A
:104C600000230C48DCB2C05C0C700B490968C0B270
:104C700051B19A4238BF4032D31A1A2B04DC0023B8
:104C80000B7010BD4FF0FF3010BD00BF1F8CFF1F19
:104C90009D8BFF1FDF8BFF1F988BFF1F084B1A7820
:104CA000084B1B78DBB29A4207D00133402B28BF58
:104CB0000023054AD05CC0B270474FF0FF30704708
:104CC0001F8CFF1F9D8BFF1FDF8BFF1F0C4B1B6873
:104CD0005B0514D50B4BDA7802F0CB02DA70402278
:104CE0005A74DA7842F03402DA70074B1A78074BBC
:104CF000D2B21A70064B1B680BB100221A707047B3
:104D00003480044000A006409D8BFF1F1F8CFF1FB6
:104D1000988BFF1F30B5374B1A7912F0300F31D016
:104D200072B69A7D02F0FF0022B9DA7940225A74F5
:104D300062B627E062B6304A304913780978DBB2B0
:104D4000C9B214462B4AD5795A1C402A28BF0022E2
:104D50008A42EDB202D02A4B9D541346421E12F0F5
:104D6000FF00EFD1DAB22270264A126852B18B42AC
:104D700036BFC1F14001C1EB03035B18272BC4BF51
:104D8000012313701B4BD978C9B20C0620D51B79AF
:104D900018061DD51C4B1D4A1D781378EDB2DBB2E9
:104DA0001046AB420CD0134A0133402B1479184CF7
:104DB00028BF0023E45CE4B2D471127D072AF0D945
:104DC000DBB203700B4B1A79120644BF7C22DA70F7
:104DD0004B060ED5074B1A7912F0400F194608D032
:104DE0000C4B00221A700C4B1B6803B11A703C2349
:104DF000CB7030BD00A006401F8CFF1F9D8BFF1F96
:104E0000DF8BFF1F988BFF1F288CFF1F208CFF1F3D
:104E10009E8BFF1F9C8BFF1F248CFF1F234B1A6848
:104E200042F400621A60224A00231370214A137070
:104E3000214A1370214A1370214A1370214B1B78A9
:104E4000092B05D01A2B07D140F213321E4B02E07A
:104E50001E4B40F213321A601D4B1B780A2B05D0F3
:104E60001F2B07D14FF451721A4B02E01A4B4FF42B
:104E700051721A60194BC0F344321A70C0F34712D2
:104E80005A7000F01F000422022198729A70D9749F
:104E90005A7588221A743C22DA70114B40221A701B
:104EA000A3F22B334FF400421A6070473480044061
:104EB0009A8CFF1F318CFF1FA08CFF1F9B8CFF1F44
:104EC000308CFF1FB587FF1F04D004400CB0044096
:104ED000B687FF1F00D0044010B0044000B0064069
:104EE0002FE400E0134A937800F0030103F0EC0391
:104EF0000B43410748BF43F01003937000F00F03CA
:104F0000042B0C4903D18B7943F040038B71537907
:104F1000C20603F0EF03074A48BF43F01003537182
:104F20009379810603F0EF0348BF43F010039371B8
:104F3000704700BF00B0064008B51E4B1B681B053C
:104F400000D408BD1C4B1B7803F0FF0213B1FDF722
:104F500025FDF7E7194B4FF400411960184BDA7043
:104F6000184B1B78092B05D01A2B07D140F20312DE
:104F7000154B02E0154B40F203121A60144B1B78DC
:104F800003F07F030A2B05D01F2B07D140F2031239
:104F9000104B02E0104B40F203121A600F4A00233C
:104FA00013700F4A13700F4B1B680BB101221A705C
:104FB00008BD00BF34800440308CFF1F84E100E056
:104FC00000B00640B587FF1F04D004400CB0044079
:104FD000B687FF1F00D0044010B004409A8CFF1F1A
:104FE000318CFF1F2C8CFF1F38B50446094B1B78F2
:104FF00003F0FF05002BF9D120460121FCF7B2FD9B
:1050000020462946FCF78EFD034B53F83420034B12
:105010001A6038BD308CFF1F588C00009C8CFF1F1D
:1050200010B509B140F08000144A13789842144634
:1050300022D0134A126812051DD503F07F030A2BF4
:1050400004D01F2B05D100220E4B01E00E4B002295
:105050001A60002900F07F020CBF442360230A2A53
:1050600005D01F2A07D143F44073064A02E0064ADE
:1050700043F440731360207010BD00BFB687FF1F5C
:105080003480044000D0044010B004400F4A13782C
:1050900098421AD00E490968090515D5092B04D084
:1050A0001A2B05D100210B4B01E00B4B002119609D
:1050B000092805D01A2807D140F21331054B02E028
:1050C000054B40F21331196010707047B587FF1F10
:1050D0003480044004D004400CB004400D4A38B57C
:1050E000146814F400624FF0000410D021280A4D17
:1050F0000AD80A4A012152F830302B60FCF732FD01
:105100002B681C70012038BD2C60204638BD10462D
:1051100038BD00BF348004402C8CFF1F588C000029
:105120000B4B1B6813F4006310D01728094B09D1EF
:10513000094A40F2023111605A7B42F001025A736F
:10514000012070475A7B02F0FE025A73002070471C
:105150003480044000B0064008B00440F8B51D4B50
:105160001B681A05064633D51B4B1B680BB1012281
:105170001A701A4B1C780134282C1F4628BF0024B3
:10518000174D2B78A34218D1FFF7E4FA40280FDC23
:10519000144A13791B06F3D52B7813490133282BB6
:1051A00028BF0023C95CDBB2C9B2D1712B70E7E71D
:1051B000FF28E5DDFDF7F2FBE2E70B4BF6B21E55EB
:1051C0000A4B01221A70074BE4B2BC223C70DA7021
:1051D000F8BD00BF348004409C8CFF1FA08CFF1FD3
:1051E0009B8CFF1F00B00640328CFF1F308CFF1FCE
:1051F000274B1B681A052DE9F04707468A4644D518
:10520000244B1B680BB101221A703D4607EB0A03C1
:105210009D4237D2DFF890801F4E98F8004096F8F4
:1052200000900134282C28BF00245FFA89F9A14599
:105230001DD11A4BBC22DA70FFF78CFA40280FDC24
:10524000164A13791B060FD5337815490133282BDD
:1052500028BF0023C95CDBB2C9B2D171337003E04F
:10526000FF2801DDFDF79AFB33784B45E4D00C4B6A
:1052700015F8012B1A550B4B0122E4B21A7088F86D
:105280000040C3E7054BBC22DA70BDE8F08700BFE1
:10529000348004409C8CFF1F9B8CFF1F00B0064095
:1052A000328CFF1F308CFF1FA08CFF1F08B5034BF3
:1052B0001B7813B1FDF772FBF9E708BD308CFF1FB7
:1052C000064A074B1B781078DBB2C0B283422CBF72
:1052D000273000F1FF30C01A704700BF9B8CFF1FC2
:1052E000A08CFF1F054B1878054B1B78C0B2DBB2B2
:1052F000984238BF4030C01A704700BF9A8CFF1FD9
:10530000318CFF1F10B5104B10491A780B78D2B2B0
:10531000DBB29A4214D00133402B28BF00230C4843
:10532000DCB2C05C0C700B490968C0B251B19A4242
:1053300038BF4032D31A1A2B04DC00230B7010BD87
:105340004FF0FF3010BD00BF9A8CFF1F318CFF1F44
:105350005A8CFF1F2C8CFF1F084B1A78084B1B78A8
:10536000DBB29A4207D00133402B28BF0023054A05
:10537000D05CC0B270474FF0FF3070479A8CFF1F6F
:10538000318CFF1F5A8CFF1F0C4B1B681B0514D55B
:105390000B4BDA7802F0CB02DA7040225A74DA78DA
:1053A00042F03402DA70074B1A78074BD2B21A7007
:1053B000064B1B680BB100221A7070473480044002
:1053C00000B00640318CFF1F9A8CFF1F2C8CFF1FF2
:1053D00030B5374B1A7912F0300F31D072B69A7D52
:1053E00002F0FF0022B9DA7940225A7462B627E04F
:1053F00062B6304A304913780978DBB2C9B2144634
:105400002B4AD5795A1C402A28BF00228A42EDB285
:1054100002D02A4B9D541346421E12F0FF00EFD1DA
:10542000DAB22270264A126852B18B4236BFC1F1FD
:105430004001C1EB03035B18272BC4BF012313708A
:105440001B4BD978C9B20C0620D51B7918061DD57F
:105450001C4B1D4A1D781378EDB2DBB21046AB42EF
:105460000CD0134A0133282B1479184C28BF002381
:10547000E45CE4B2D471127D072AF0D9DBB2037088
:105480000B4B1A79120644BF7C22DA704B060ED5FC
:10549000074B1A7912F0400F194608D00C4B002226
:1054A0001A700C4B1B6803B11A703C23CB7030BDD3
:1054B00000B006409A8CFF1F318CFF1F5A8CFF1FD3
:1054C0002C8CFF1FA08CFF1F9B8CFF1F328CFF1F9B
:1054D000308CFF1F9C8CFF1F174B1A6842F48052C0
:1054E0001A60164A00231370154A1370154A137078
:1054F000154A1370154A1370154A40F213311160A2
:105500004FF451715160134AC0F344311170C0F32C
:10551000471100F01F0051709072937013742C2388
:10552000D3700D4B40226FF44B711A700B444FF443
:1055300000321A60704700BF34800440128DFF1F94
:10554000A98CFF1F188DFF1F138DFF1FA88CFF1F35
:1055500008C0044000C0064031E400E0134A9378DC
:1055600000F0030103F0EC030B43410748BF43F095
:105570001003937000F00F03042B0C4903D18B79B7
:1055800043F040038B715379C20603F0EF03074ADF
:1055900048BF43F0100353719379810603F0EF0382
:1055A00048BF43F010039371704700BF00C006402E
:1055B00008B5114B1B68DB0400D408BD0F4B1A78EB
:1055C00002F0FF0312B1FDF7E9F9F7E70C4A4FF4D7
:1055D000003111600B4A0C49D37040F203120A608B
:1055E0004A600A4A13700A4A13700A4B1B680BB1CF
:1055F00001221A7008BD00BF34800440A88CFF1F30
:1056000084E100E000C0064008C00440128DFF1F86
:10561000A98CFF1FA48CFF1F38B50446094B1B78CB
:1056200003F0FF05002BF9D120460121FCF79AFA7F
:1056300020462946FCF776FA034B53F83420034BF7
:105640001A6038BDA88CFF1F588C0000148DFF1FF6
:1056500010B509B140F080000E4A1378984217D077
:105660000D4C2468E40412D503F07F03082B02D10B
:105670000A4B00241C60002900F07F030CBF44216A
:105680006021082B03D1054B41F440711960107063
:1056900010BD00BFB787FF1F348004400CC004401A
:1056A0007047FFFF0D4A38B5146814F480524FF06C
:1056B000000410D021280A4D0AD80A4A012152F8C4
:1056C00030302B60FCF74EFA2B681C70012038BD7F
:1056D0002C60204638BD104638BD00BF34800440E1
:1056E000A48CFF1F588C00000B4B1B6813F48053D5
:1056F00010D00E28094B09D1094A40F2023111603D
:105700005A7B42F001025A73012070475A7B02F023
:10571000FE025A73002070473480044000C00640E7
:1057200004C00440F8B51D4B1B68DA04064633D5A7
:105730001B4B1B680BB101221A701A4B1C780134E9
:10574000282C1F4628BF0024174D2B78A34218D1C0
:10575000FFF700F840280FDC144A13791B06F3D535
:105760002B7813490133282B28BF0023C95CDBB2F7
:10577000C9B2D1712B70E7E7FF28E5DDFDF70EF91F
:10578000E2E70B4BF6B21E550A4B01221A70074B8B
:10579000E4B2AC223C70DA70F8BD00BF3480044043
:1057A000148DFF1F188DFF1F138DFF1F00C00640B3
:1057B000AA8CFF1FA88CFF1F38B504464518AC42C1
:1057C00004D014F8010BFFF7ADFFF8E738BDFFFF79
:1057D00008B5034B1B7813B1FDF7E0F8F9E708BDF6
:1057E000A88CFF1F064A074B1B781078DBB2C0B2AB
:1057F00083422CBF273000F1FF30C01A704700BF32
:10580000138DFF1F188DFF1F054B1878054B1B7854
:10581000C0B2DBB2984238BF4030C01A704700BFF8
:10582000128DFF1FA98CFF1F10B5104B10491A785D
:105830000B78D2B2DBB29A4214D00133402B28BF8E
:1058400000230C48DCB2C05C0C700B490968C0B284
:1058500051B19A4238BF4032D31A1A2B04DC0023CC
:105860000B7010BD4FF0FF3010BD00BF128DFF1F39
:10587000A98CFF1FD28CFF1FA48CFF1F084B1A7826
:10588000084B1B78DBB29A4207D00133402B28BF6C
:105890000023054AD05CC0B270474FF0FF3070471C
:1058A000128DFF1FA98CFF1FD28CFF1F054B1A788A
:1058B000054BD2B21A70054B1B680BB100221A704F
:1058C000704700BFA98CFF1F128DFF1FA48CFF1F04
:1058D00010B5294B1A79920620D5284AD879137821
:1058E00027490133402B097828BF00238B42C0B2DF
:1058F00003D02449C854D9B21170234A116869B140
:10590000224A1278D2B2934236BFC2F14002C2EBB1
:1059100003039B18272BC4BF01230B70164AD178B1
:10592000C9B20C0616D51379180613D5184B1748AB
:105930001C780378DBB29C4202D16C23D37009E05F
:105940000133282B28BF0023124CE45CDBB2E4B205
:10595000D47103704B060ED5074B1A7912F0400F25
:10596000194608D00C4B00221A700C4B1B6803B16F
:105970001A702C23CB7010BD00C00640128DFF1F83
:10598000A98CFF1FD28CFF1FA48CFF1F138DFF1F3C
:10599000188DFF1FAA8CFF1FA88CFF1F148DFF1FDF
:1059A0001FB572B6154B70221A70154A412111703D
:1059B0000F2102F8011C80221A701A781206FCD5F9
:1059C000104B186862B6104B984298BF0A2301AC7E
:1059D00098BF584321460A22FCF766F80023E15C91
:1059E0000A4A29B102EB430001330A2B4180F6D168
:1059F00001335B00137004B010BD00BF0000024013
:105A000007000240080002407F9698004088FF1F70
:105A1000FCF7D8BEFCF794BEFCF7B8BEFCF76CBF31
:105A2000FCF7DEBE0846FCF75BBF08461146FCF7F4
:105A3000EFBE7047044B00221A714FF47A711A734B
:105A4000024A99601A6070471C8DFF1F288F000062
:105A500003460846194600F001B8FFFF70B5064C32
:105A600006460D4613462CB131462A460220AFF3B6
:105A7000008070BD204670BD0000000070B50E4B68
:105A80000E4DED1AAD1000241E46AC4204D056F85F
:105A9000242090470134F8E703F056FA084D094BEB
:105AA000ED1AAD1000241E46AC4204D056F8242056
:105AB00090470134F8E770BD548F0000548F000008
:105AC0006C8F0000548F0000024B0146186800F0F4
:105AD0004FB800BFB888FF1F024B0146186800F09E
